:020000040800F2
:1000000000000220210200087102000871020008AD
:10001000710200087102000871020008000000006F
:100020000000000000000000000000007102000855
:10003000710200080000000071020008710200084F
:1000400071020008710200087102000871020008C4
:1000500071020008710200087102000871020008B4
:1000600071020008710200087102000871020008A4
:100070007102000871020008710200087102000894
:1000800071020008710200087102000800000000FF
:1000900000000000000000000000000071020008E5
:1000A0007102000871020008710200087102000864
:1000B0007102000871020008710200087102000854
:1000C0007102000871020008710200087102000844
:1000D00071020008710200087102000800000000AF
:1000E000710200087102000871020008000000009F
:1000F0000000000000000000000000007102000885
:10010000000000007102000871020008710200087E
:1001100000000000000000000000000000000000DF
:1001200071020008710200087102000871020008E3
:100130007102000800000000000000000000000044
:100140000000000000000000000000007102000834
:1001500071020008710200087102000871020008B3
:100160007102000871020008000000000000000099
:10017000000000000000000000000000000000007F
:1001800000000000710200080000000000000000F4
:08019000710200087102000871
:1001980010B5054C237833B9044B13B10448AFF3B9
:1001A80000800123237010BD000000200000000023
:1001B8009C02000808B5034B1BB103490348AFF381
:1001C800008008BD00000000040000209C02000818
:1001D80070B50D4D0D4C641BA4100026A64209D124
:1001E8000B4D0C4C00F056F8641BA4100026A642D8
:1001F80005D170BD55F8043B98470136EEE755F830
:10020800043B98470136F2E7B4020008B40200083C
:10021800B4020008B8020008DFF834D00D480E49CF
:100228000E4A002302E0D458C4500433C4188C4248
:10023800F9D30B4A0B4C002301E013600432A242AD
:10024800FBD300F015F8FFF7C3FF00F00EF8704776
:10025800000002200000002000000020BC0200086E
:10026800000000201C000020FEE780B400AFFEE77D
:1002780080B400AF064BD3F88830054A43F47003C6
:10028800C2F8883000BFBD465DF8047B704700BFE8
:1002980000ED00E0F8B500BFF8BC08BC9E4670470A
:0C02A800F8B500BFF8BC08BC9E467047CB
:0402B400BD01000880
:0402B80099010008A0
:0400000508000221CC
:00000001FF
